:020000020000FC
:020000000EC030
:10001C0025C000E010E020E050E060E070E080E0FF
:10002C0090E038E03EBF3FE53DBF38EA3BBD30ECE9
:10003C003ABD3CE03EBD30E139BF332731BB38E03F
:10004C0035BF30EC3BBF7894332730BD33E239B940
:10005C0038E13AB93EE830BD30E0FFCF30E804D0AB
:10006C0015D00DD008D018955D9BFECF3CB90895E6
:10007C0036E083270895FCDF382FF6DF0895322F02
:10008C0021D0312F1FD0302F1DD0089540E005D046
:10009C0034130AD034130FD0089530E003950C3389
:1000AC0011F4002731E0089530E013951C3311F45E
:1000BC00112731E0089530E02395283111F42227DF
:1000CC0031E00895432F33274A3018F04A503395C6
:1000DC00FBCF03D0342F01D00895303011F437E723
:1000EC0026C0313011F434E222C0323011F43DE537
:1000FC001EC0333011F43DE61AC0343011F43EE228
:10010C0016C0353011F43BE612C0363011F43BE723
:10011C000EC0373011F435E20AC0383011F43FE725
:10012C0006C0393011F43FE602C030E000C09CDF5D
:02013C00089524
:00000001FF
