:020000020000FC
:1000000000C000E010E020E050E060E070E080E040
:1000100090E038E03EBF3FE53DBF38EA3BBD30EC05
:100020003ABD3CE03EBD30E139BF332731BB38E05B
:1000300035BF30EC3BBF7894332730BD33E239B95C
:1000400038E13AB933273EE830BD3327FFCF00D03F
:1000500040E005D034130AD034130FD0089530E0B7
:1000600003950C3311F4002731E0089530E0139527
:100070001C3311F4112731E0089530E02395283125
:0800800011F4222731E008957C
:00000001FF
