:020000020000FC
:020000000EC030
:10001C0025C000E010E020E050E060E070E080E0FF
:10002C0099E138E03EBF3FE53DBF3AE23BBD30E3EE
:10003C003ABD3CE03EBD30E139BF332731BB38E03F
:10004C0035BF30EC3BBF7894332730BD33E239B940
:10005C0038E13AB93EE830BD30E0FFCF30E805D0AA
:10006C009AD037D00DD008D018955D9BFECF3CB9F7
:10007C00089536E083270895FCDF382FF6DF0895C6
:10008C0090313CF4322F50D0312F4ED0302F4CD0F9
:10009C00089590FD05C091FD0BC092FD12C008950E
:1000AC0030E0E3DFE2DFE1DFE0DF302F3DD0089529
:1000BC0030E0DBDFDADF312F37D030E0D6DFD5DFD1
:1000CC000895322F31D030E0D0DFCFDFCEDFCDDF5F
:1000DC000895983018F030E19327089540E007D048
:1000EC0034130DD0341312D0341317D00895F39465
:1000FC003F2D343030E011F4FF2431E0089530E02E
:10010C0003950C3311F4002731E0089530E013957A
:10011C001C3311F4112731E0089530E02395283178
:10012C0011F4222731E00895432F33274A3018F079
:10013C004A503395FBCF03D0342F01D00895303083
:10014C0011F437E726C0313011F434E222C03230DA
:10015C0011F43DE51EC0333011F43DE61AC03430C5
:10016C0011F43EE216C0353011F43BE612C03630C5
:10017C0011F43BE70EC0373011F435E20AC03830C9
:10018C0011F43FE706C0393011F43FE602C030E00D
:10019C0000C06BDF089539B33E3F19F03D3F69F065
:1001AC00089590FD04C091FD04C092FD04C0A7DF2A
:1001BC000895ACDF0895B1DF089593FD01C0089553
:1001CC0090FD05C091FD06C092FD07C0089533E077
:0E01DC009327089536E09327089590E0089544
:00000001FF
