:020000020000FC
:020000000EC030
:10001C0025C000E010E020E050E060E070E080E0FF
:10002C0091E238E03EBF3FE53DBF3AE23BBD30E3F5
:10003C003ABD3CE03EBD30E139BF332731BB38E03F
:10004C0035BF30EC3BBF7894332730BD33E239B940
:10005C0038E13AB93EE830BD30E0FFCF30E806D0A9
:10006C00C8D04DD00ED050D008D018955D9BFECF87
:10007C003CB9089536E083270895FCDF382FF6DF6E
:10008C00089590323CF4322F7DD0312F7BD0302F1D
:10009C0079D0089590FD09C091FD0FC092FD16C056
:1000AC0093FD1CC094FD23C0089530E0DFDFDEDF3C
:1000BC00DDDFDCDF302F66D0089530E0D7DFD6DF10
:1000CC00312F60D030E0D2DFD1DF0895322F5AD0FB
:1000DC0030E0CCDFCBDFCADFC9DF089530E0C6DF0C
:1000EC00C5DF362F4FD030E0C1DFC0DF0895372F8A
:1000FC0049D030E0BBDFBADFB9DFB8DF0895983004
:10010C0078F030E19327089580FF07C0051729F494
:10011C00161719F4271709F401D00895886008956B
:10012C0040E007D034130DD0341312D0341317D051
:10013C000895F3943F2D343030E011F4FF2431E076
:10014C00089530E003950C3311F4002731E0089545
:10015C0030E013951C3311F4112731E0089530E091
:10016C002395283111F4222731E0089530E063956E
:10017C006C3309F46627089530E07395783109F4EF
:10018C0077270895432F33274A3018F04A50339578
:10019C00FBCF03D0342F01D00895303011F437E762
:1001AC0026C0313011F434E222C0323011F43DE576
:1001BC001EC0333011F43DE61AC0343011F43EE267
:1001CC0016C0353011F43BE612C0363011F43BE763
:1001DC000EC0373011F435E20AC0383011F43FE765
:1001EC0006C0393011F43FE602C030E000C03EDFFB
:1001FC00089539B33E3F49F03D3FF9F00895867FAD
:10020C00089531E083FF83270895F9DF95FF089562
:10021C0090FD09C091FD09C092FD09C093FD09C074
:10022C0094FD09C008958DDF089592DF089597DF3E
:10023C0008959CDF0895A0DF089593FD02C0E1DFCF
:10024C00089590FD09C091FD0AC092FD0BC093FD6D
:10025C000CC094FD0DC0089533E09327089536E04B
:10026C00932708953CE09327089538E19327089548
:04027C0090E0089571
:00000001FF
