:020000020000FC
:020000000EC030
:10001C0025C000E010E020E050E060E070E080E0FF
:10002C0090E038E03EBF3FE53DBF38EA3BBD30ECE9
:10003C003ABD3CE03EBD30E139BF332731BB38E03F
:10004C0035BF30EC3BBF7894332730BD33E239B940
:10005C0038E13AB93EE830BD30E0FFCF30E803D0AC
:10006C0014D00CD018955D9BFECF3CB9089536E0AA
:10007C0083270895FCDF382FF6DF0895322F21D027
:10008C00312F1FD0302F1DD0089540E005D03413F0
:10009C000AD034130FD0089530E003950C3311F4CB
:1000AC00002731E0089530E013951C3311F411272B
:1000BC0031E0089530E02395283111F4222731E006
:1000CC000895432F33274A3018F04A503395FBCF0D
:1000DC0003D0342F01D00895303011F437E72AC003
:1000EC00313011F434E226C0323011F43DE522C037
:1000FC00333011F43DE61EC0343011F43EE21AC028
:10010C00353011F43BE716C0363011F43BE712C022
:10011C00373011F435E20EC0383011F43FE70AC025
:10012C00393011F43FE606C03A3011F430E002C029
:08013C0030E000C098DF0895D7
:00000001FF
