:020000020000FC
:020000000EC030
:10001C0025C000E010E020E05EE160E070E080E0F0
:10002C0099E138E03EBF3FE53DBF3AE23BBD30E3EE
:10003C003ABD3CE03EBD30E139BF332731BB38E03F
:10004C0035BF30EC3BBF7894332730BD33E239B940
:10005C0038E13AB93EE830BD30E0FFCF30E806D0A9
:10006C00A7D038D00ED03BD008D018955D9BFECFD2
:10007C003CB9089536E083270895FCDF382FF6DF6E
:10008C00089590313CF4322F5CD0312F5AD0302F60
:10009C0058D0089590FD05C091FD0BC092FD12C083
:1000AC00089530E0E3DFE2DFE1DFE0DF302F49D01D
:1000BC00089530E0DBDFDADF312F43D030E0D6DFDC
:1000CC00D5DF0895322F3DD030E0D0DFCFDFCEDF4B
:1000DC00CDDF0895983078F030E19327089580FFB4
:1000EC0007C0051729F4161719F4271709F401D0BE
:1000FC0008958860089540E007D034130DD0341370
:10010C0012D0341317D00895F3943F2D343030E0CF
:10011C0011F4FF2431E0089530E003950C3311F411
:10012C00002731E0089530E013951C3311F41127AA
:10013C0031E0089530E02395283111F4222731E085
:10014C000895432F33274A3018F04A503395FBCF8C
:10015C0003D0342F01D00895303011F437E726C086
:10016C00313011F434E222C0323011F43DE51EC0BE
:10017C00333011F43DE61AC0343011F43EE216C0AF
:10018C00353011F43BE612C0363011F43BE70EC0AB
:10019C00373011F435E20AC0383011F43FE706C0AD
:1001AC00393011F43FE602C030E000C05FDF089543
:1001BC0039B33E3F49F03D3FB1F00895867F089535
:1001CC0031E083FF83270895F9DF93FF089590FDB5
:1001DC0004C091FD04C092FD04C09EDF0895A3DF0E
:1001EC000895A8DF089593FD02C0EADF089590FDFD
:1001FC0005C091FD06C092FD07C0089533E093271A
:0C020C00089536E09327089590E00895CF
:00000001FF
